:100000000C9446000C9458000C9458000C94580022
:100010000C9458000C9458000C9458000C94580000
:100020000C9458000C9458000C9458000C945800F0
:100030000C9458000C9458000C9458000C945800E0
:100040000C9465050C9458000C9458000C945800BE
:100050000C9458000C9458000C9458000C945800C0
:100060000C9458000C9458000C9458000C945800B0
:100070000C9458000C9458000C9458000C945800A0
:100080000C9458000C945A020C94580011241FBE72
:10009000CFEFD0E1DEBFCDBF21E0A0E0B1E001C0F5
:1000A0001D92A536B207E1F70E94FB040C94EE0501
:1000B0000C940000EBE4F1E080836183AF0162E027
:1000C00080ED0C94DC0190E06AE070E00E94C605CF
:1000D00024E0660F771F2A95E1F7682B792B6F775D
:1000E00080E00C945A0090E06AE070E00E94C6053F
:1000F00024E0660F771F2A95E1F7682B792B6F773D
:1001000081E00C945A0090E06AE070E00E94C6051D
:1001100024E0660F771F2A95E1F7682B792B86E09C
:100120000C945A00CF93DF93CBE4D1E08883AE01E7
:1001300061E080ED0E94DC01AE0161E080ED0E9493
:1001400018028881DF91CF910895CF93C82F80E066
:100150000E949200682F6F7780E00E945A0082E030
:100160000E949200682FC11102C06F7B01C06064C1
:1001700082E0CF910C945A0080E00E949200982F68
:100180009695969596959E70292F220F220F920F85
:100190008F70890F089581E00E949200982F9295A8
:1001A0009F708F702AE0929F800D1124089582E045
:1001B0000E94920086FF02C08F7301C08F71982F3A
:1001C00092959F708F702AE0929F800D1124089560
:1001D0001F93CF93DF93182F90E06AE070E00E94A6
:1001E000C60524E0660F771F2A95E1F7EB01C82BBF
:1001F000D92B0E94D70016FF04C0CF776C2F606404
:1002000002C06C2F6F7382E0DF91CF911F910C942D
:100210005A0084E00E949200982F969596959695A4
:100220009670292F220F220F920F8F70890F089539
:10023000E4E7F0E080818F70806C80830895BC01DA
:10024000809171008E7F80937100809171008D7F0D
:10025000809371008CEC9CE10E94C605862F603172
:1002600038F07727CB01409797FD019695958795B4
:10027000809370000895909A919A109203011092C1
:100280000201109201011092000184E690E00E94A8
:100290001F01E4E7F0E080818460808310924901CF
:1002A00080818160808380818064808378940895D8
:1002B0008E7F91E0611101C090E0982B90937200C5
:1002C0000895909303018093020108959093010192
:1002D000809300010895E4E7F0E080818F70806AE8
:1002E00080830895E4E7F0E080818F70806D8083E3
:1002F00008958091740087FFFCCF08958093730068
:10030000E4E7F0E080818F70806880830895811138
:100310000C941801809174008F7080688093740031
:1003200008958091730008958091710008959091CF
:1003300049019111FCCF92E0909349018E7F809307
:100340004801942FA8E2B1E0FA018E2F891B86178D
:1003500018F481918D93F9CF1092270160932601B3
:100360000C946B011F93CF93DF93C62FD42F152FBF
:10037000909149019111FCCF93E0909349018160E4
:100380008093480110920501C09304010E946B0103
:10039000809149018111FCCFA6E0B1E09D2FED2FA6
:1003A000F12F8E2F891B8C1718F48D918193F9CF23
:1003B000DF91CF911F910895FF920F931F93CF93D9
:1003C000DF93C82F162FF42E052F809174008E7F97
:1003D000809374000E946B010E9479018C2F8E7FA4
:1003E0000E947E010E94790180917100883169F438
:1003F000CF2DD02F112339F089910E947E010E94C8
:1004000079011150F7CFC0E001C0C1E00E94720134
:100410008091740084FFFCCF809174008160809390
:1004200074008C2FDF91CF911F910F91FF90089551
:10043000FF920F931F93CF93DF93C82F162FF42EA5
:10044000052F809174008E7F809374000E946B0151
:100450000E9479018C2F81600E947E010E947901A7
:10046000809171008034B9F4CF2DD02F123048F034
:100470000E9418010E9479018091730089931150A4
:10048000F5CF80E00E9487010E947901809173007E
:100490008883C0E001C0C1E00E94720180917400B5
:1004A0008160809374008C2FDF91CF911F910F9109
:1004B000FF9008951F920F920FB60F9211240BB662
:1004C0000F922F933F934F935F936F937F938F93ED
:1004D0009F93AF93BF93EF93FF9380917100887FB9
:1004E000803609F49AC078F5883209F45DC090F43A
:1004F000803109F456C038F4882309F4EDC08830FF
:1005000009F44FC0F1C0883109F44EC0803209F4BB
:1005100068C0EAC0803409F473C058F4803309F429
:1005200060C0883309F0E0C0809174008F708068EB
:10053000D7C0803509F458C0883509F446C08834DE
:1005400009F0D2C04EC0883909F47BC0A8F48837BE
:1005500009F463C038F4883609F45FC0803709F4C1
:100560005CC0C2C0883809F46CC0803909F45BC033
:10057000803809F0B9C057C0803B09F479C038F41D
:10058000803A09F462C0883A09F472C0ADC0803C78
:1005900009F49DC0883C09F49AC0883B09F479C0ED
:1005A000A3C0809148010EC0E091270180912601EF
:1005B000E817B8F481E08E0F80932701F0E0E85D42
:1005C000FE4F80810E947E018FC0E091050181E095
:1005D0008E0F8093050180917300F0E0EA5FFE4F7B
:1005E00080830E9472017EC0E091050181E08E0F40
:1005F0008093050180917300F0E0EA5FFE4F8083F5
:100600002091050130E08091040190E001972817C6
:100610003907BCF40E94180167C085E08093490146
:100620001092050148C0E091050181E08E0F809392
:10063000050190917300F0E0EA5FFE4F90838032F5
:1006400048F380E00E9487014FC0809174008F7052
:10065000806C80937400E0910201F0910301309767
:1006600009F440C066E071E08091050109953AC047
:1006700084E080934901E0910001F09101013097FD
:1006800031F068E271E080E20995809326011092D2
:100690002701E091270181E08E0F80932701F0E090
:1006A000E85DFE4F808180937300909127018091D7
:1006B0002601981728F4809174008F70806C04C014
:1006C000809174008F708068809374000DC0809159
:1006D00074008F70806C04C0809174008F70806D86
:1006E0008093740010924901FF91EF91BF91AF91F7
:1006F0009F918F917F916F915F914F913F912F913A
:100700000F900BBE0F900FBE0F901F901895809109
:10071000490108951092710080E28093700084E88E
:1007200080937400089594EA9093740090917400FB
:1007300097FFFCCF90917100987F9830E9F490ED8D
:100740009093730094E8909374009091740097FFD5
:10075000FCCF90917100987F983171F48093730071
:1007600084E8809374008091740087FFFCCF8091AF
:100770007100887F883219F080917100089584E9B2
:100780008093740080E0089594EA909374009091AF
:10079000740097FFFCCF90917100987F9830C1F55D
:1007A00090ED9093730094E890937400909174008E
:1007B00097FFFCCF90917100987F983149F5809315
:1007C000730084E8809374008091740087FFFCCFED
:1007D00080917100887F8832D9F4962FFB0124E83C
:1007E0008E2F891B841778F4819180937300209356
:1007F00074008091740087FFFCCF80917100887F26
:10080000883271F305C084E98093740080E0089514
:10081000809171000895CF93DF93FC0184EA809367
:1008200074008091740087FFFCCF90917100987FD5
:100830009830B9F781ED8093730084E88093740059
:100840008091740087FFFCCF90917100987F903465
:10085000B9F790E070E0DB01119784EC292F30E0CC
:100860002A173B079CF4809374004091740047FF63
:10087000FCCF40917100487F4035B9F7409173003B
:10088000EF01C20FD31F48839F5FE8CF84E88093B6
:1008900074008091740087FFFCCF90917100987F65
:1008A0009835B9F7809173006E0F7F1FFB01319768
:1008B000808384E98093740080E0DF91CF91089574
:1008C0008FB9779BFECF0895CF93C62FC09A0E9411
:1008D00060048C2F0E946004C098CF910895982FD7
:1008E00092959F708F702AE0929F800D1124089539
:1008F0006AE00E94BA0520E1829F900D1124892FA1
:100900000895CF93DF93C7E5D1E088818F770E9468
:100910006F0490E090934E0180934D0189810E9475
:100920006F0490E090935401809353018A818F71FA
:100930000E946F0490E09093500180934F018C814E
:100940000E946F0490E090935201809351018D8139
:100950000E946F0490E090935F0180935E018E810E
:100960000E946F0490E0909356018093550180910E
:100970004F0190915001CAE0D0E0BE010E94DA051B
:1009800088E00E94640480914F0190915001BE0163
:100990000E94DA05682F87E00E9464048091530169
:1009A00090915401BE010E94DA0585E00E94640422
:1009B0008091530190915401BE010E94DA05682F85
:1009C00084E00E94640480914D0190914E01BE012B
:1009D0000E94DA0582E00E94640480914D019091AA
:1009E0004E01BE010E94DA05682F81E0DF91CF91B0
:1009F0000C946404089587B3876087BB8DB18265CA
:100A00008DB981B3836081BB90986FEF89E00E94BC
:100A100064046AE08AE00E94640467E08BE00E945C
:100A2000640461E08CE00E94640485E083BF81E09F
:100A300087BF789480914D0190914E010E94780477
:100A40008093570180915301909154010E94780442
:100A50008093580180914F01909150010E94780439
:100A60008093590180915101909152010E94780424
:100A700080935B0180915E0190915F010E947804F8
:100A800080935C0180915501909156010E947804F9
:100A900080935D010E948A0347E067E571E080E092
:100AA0000E94C40383E397E00197F1F70E94810459
:100AB00080E00E94930383E397E00197F1F767E0FA
:100AC00087E591E00E940B04FFCF1F920F920FB6B3
:100AD0000F9211240BB60F922F933F934F935F9376
:100AE0006F937F938F939F93AF93BF93EF93FF93F6
:100AF00080914A018F5F80934A0180914A018A3038
:100B000030F180E00E94930383E397E00197F1F7CF
:100B100067E087E591E00E940B04809157010E94F5
:100B20006F0420914D0130914E0190E082179307A0
:100B300061F080914D0190914E018F770E946F047A
:100B400090E090934E0180934D0110924A01FF91E5
:100B5000EF91BF91AF919F918F917F916F915F9135
:100B60004F913F912F910F900BBE0F900FBE0F90A2
:100B70001F901895991B79E004C0991F961708F0EB
:100B8000961B881F7A95C9F780950895AA1BBB1BF1
:100B900051E107C0AA1FBB1FA617B70710F0A61B7D
:100BA000B70B881F991F5A95A9F780959095BC019E
:100BB000CD01089597FB072E16F4009407D077FD1A
:100BC00009D00E94C60507FC05D03EF4909581959A
:100BD0009F4F0895709561957F4F0895F894FFCFCA
:00000001FF
